:0400000045EF00F0D8
:100008003C82FACF01F0FBCF02F0E9CF03F0EACF50
:1000180004F0E1CF05F0E2CF06F0D9CF07F0DACF50
:1000280008F0F3CF09F0F4CF0AF0F6CF0BF0F7CFD2
:100038000CF0F8CF0DF0F5CF0EF0F2BC9DA003D078
:100048009EB04EEC03F00EC0F5FF0DC0F8FF0CC0DB
:10005800F7FF0BC0F6FF0AC0F4FF09C0F3FF08C0A2
:10006800DAFF07C0D9FF06C0E2FF05C0E1FF04C000
:10007800EAFF03C0E9FF02C0FBFF01C0FAFF3C92A0
:1000880011008AEF03F0000E246E60AE83D062A6E2
:100098001ED022C0D9FF23C0DAFF020EDF6E64CF64
:1000A8000FF061CF10F062CF11F063505CEC01F0FB
:1000B80020EE01F02250D9262350DA220FC0DEFFAD
:1000C80010C0DEFF11C0DEFF12C0DEFF19D022C053
:1000D800D9FF23C0DAFF010EDF6E62CF0FF0615047
:1000E800CAEC02F020EE01F02250D9262350DA2281
:1000F8000FC0DEFF10C0DEFF11C0DEFF12C0DEFF42
:1001080020EE05F02250D9262350DA2265CFDFFFF2
:1001180020EE06F02250D9262350DA2266CFDFFFE0
:1001280020EE07F02250D9262350DA2267CFDFFFCE
:1001380020EE08F02250D9262350DA2268CFDFFFBC
:1001480020EE09F02250D9262350DA2269CFDFFFAA
:1001580020EE0AF02250D9262350DA226ACFDFFF98
:1001680020EE0BF02250D9262350DA226BCFDFFF86
:1001780020EE0CF02250D9262350DA226CCFDFFF74
:1001880020EE0DF02250D9262350DA226DCFDFFF62
:10019800609E89D00F0130AF88D00F0132A71FD0E1
:1001A80022C0D9FF23C0DAFF020EDF6E34CF0FF072
:1001B80031CF10F032CF11F00F0133515CEC01F068
:1001C80020EE01F02250D9262350DA220FC0DEFF9C
:1001D80010C0DEFF11C0DEFF12C0DEFF1AD022C041
:1001E800D9FF23C0DAFF010EDF6E32CF0FF00F0107
:1001F8003151CAEC02F020EE01F02250D9262350EA
:10020800DA220FC0DEFF10C0DEFF11C0DEFF12C011
:10021800DEFF20EE05F02250D9262350DA2235CF12
:10022800DFFF20EE06F02250D9262350DA2236CFFF
:10023800DFFF20EE07F02250D9262350DA2237CFED
:10024800DFFF20EE08F02250D9262350DA2238CFDB
:10025800DFFF20EE09F02250D9262350DA2239CFC9
:10026800DFFF20EE0AF02250D9262350DA223ACFB7
:10027800DFFF20EE0BF02250D9262350DA223BCFA5
:10028800DFFF20EE0CF02250D9262350DA223CCF93
:10029800DFFF20EE0DF02250D9262350DA223DCF81
:1002A800DFFF0F01309F010E246E77922450120059
:1002B800176E000E186E000E196E000E1A6E000EE4
:1002C8001B6E000E1E6E000E1F6E000E206E000EBE
:1002D800216E1150030B1C6E1138E842070B1D6E7E
:1002E8001050136E146AD89013361436D8901336FB
:1002F8001436D8901336143613C01EF014C01FF0ED
:10030800000E1FBEFF0E206E216E1D501E241E6E95
:10031800000E1F201F6E000E2020206E000E2120D0
:10032800216E1EC013F01FC014F020C015F021C0AC
:1003380016F0020ED8901336143615361636E82EF7
:10034800F9D713C01EF014C01FF015C020F016C056
:1003580021F01C501E241E6E000E1F201F6E000E62
:100368002020206E000E2120216E1EC014F01FC018
:1003780015F020C016F0136A13C01EF014C01FF049
:1003880015C020F016C021F017501E241E6E000E56
:100398001F201F6E000E2020206E000E2120216ECF
:1003A8001EC014F01FC015F020C016F0136A13C049
:1003B8001EF014C01FF015C020F016C021F00F5019
:1003C8001E241E6E000E1F201F6E000E2020206EA1
:1003D800000E2120216E1EC018F01FC019F020C089
:1003E8001AF021C01BF018C00FF019C010F01AC085
:1003F80011F01BC012F01200800E6F6E6E50E00BF1
:10040800800AD8A4FBD7000E726E000E0E01FA6F98
:10041800000E0E01FB6F000E0E01F86F000E0E01AC
:10042800F96F0E01FE690E01FF690E01FC690E01EC
:10043800FD69000E0E01E26F000E0E01E36F880EDB
:100448000E01E06F800E0E01E16F000E0E01E66FE7
:10045800000E0E01E76FCC0E0E01E46FC00E0E0108
:10046800E56F000E0E01EA6F000E0E01EB6F000E35
:100478000E01E86F000E0E01E96F000E0E01EE6F1F
:10048800000E0E01EF6F000E0E01EC6F000E0E0154
:10049800ED6F000E0E01F26F000E0E01F36F000EED
:1004A8000E01F06F000E0E01F16F000E0E01F66FD7
:1004B800000E0E01F76F000E0E01F46F000E0E0114
:1004C800F56F000E0E01436F980E0E01446F010E7A
:1004D8000E01456F000E6F6E6ECF0FF0E00E0F1617
:1004E800D8B41200F9D772EC03F0F28EF28C580EE1
:1004F8000F6E070E106EA3EC03F07080708A709E6A
:10050800709CCB0E266EEC0E256E840EE82EFED760
:10051800252EFCD7262EFAD700D0520E9DEC03F0DC
:10052800490E9DEC03F04E0E9DEC03F0470E9DEC3A
:1005380003F00A0E9DEC03F00D0E9DEC03F08C9C6D
:10054800270E226E000E236E47EC00F00009D8B487
:1005580018D0010E3B6E430E281813E1060E291819
:100568002A102B10D8A40DD0010E3B6E2DA004D05C
:100578008C8C8C8A8C9805D02DB003D08C8C8C9A5E
:100588008C88000E3B6EA8EC03F0DAD7156E000ECF
:10059800166E000E176E000E186E000E196E1550AE
:1005A800136E146AD89013361436D890133614364E
:1005B800D8901336143613C01AF014C01BF0000E6E
:1005C8001BBEFF0E1C6E1D6E0FC013F0050E146EC1
:1005D800D8901332142EFCD713501A241A6E000E1A
:1005E8001B201B6E000E1C201C6E000E1D201D6E95
:1005F8001AC016F01BC017F01CC018F01DC019F067
:1006080016C00FF017C010F018C011F019C012F082
:100618001200000E8D6E700E8C6E000E896E000E2C
:100628008E6E000E8A6E000E8F6E000E8B6EF70EA9
:10063800966E9768EF0E926E170E986EFB0E936E7D
:1006480094688F0E956EEF0E0F015D6F7F0E0F0190
:100658005C6F0F015B691200300ECD6E000EAA6E42
:100668003C0ECF6EB00ECE6ECE50CFCF11F0126AC8
:1006780011C012F0116A1110376E1250386E9E9028
:100688009D805A0E0F6E070E106EA3EC03F0A8ECB7
:1006980003F012009E903850CF6E37C0CEFF394A13
:1006A8003A2A3A5004E1020E395CD8A0120062ECF2
:1006B80003F0000E3A6E000E396E120035503610F7
:1006C800D8B4120001D812000500FA6E3550FD6E3C
:1006D8003650FE6EF850FF6EFA501200AAEC03F086
:1006E8000DEC03F094EC03F030EC03F07FEC03F036
:1006F80000EC02F01200080EA76E900EAB6E240EEE
:10070800AC6E220EAF6E000E7D6E12003B6A3A6A26
:10071800396A3C903C92000EF86E000177EF02F0C7
:10072800600ED36E000ED26E000E9B6E000E9A6E97
:1007380012000F6E9EA8FED70FC0ADFF12000FC0AB
:1007480035F010C036F01200CD801200D09E120095
:040758001200120079
:020000040020DA
:08000000FFFFFFFFFFFFFFFF00
:020000040030CA
:0E00000015027F7CFF8F91FF0FC00FE00F40B5
:00000001FF
