:0400000012EF7DF08E
:10F9F400016E9EA8FED701C0ADFF1200600ED36E4B
:10FA0400000ED26E000E9B6E000E9A6E120026EC53
:10FA14007DF000EC7DF01BEC7DF0D0EC7DF012006D
:10FA240000EE19F00E0EEE6AE806FDE100018CEF1F
:10FA34007DF0080EA76E900EAB6E240EAC6E220EF7
:10FA4400AF6E000E7D6E1200000E8D6E700E8C6E09
:10FA5400000E896E000E8E6E000E8A6E000E8F6E82
:10FA6400000E8B6EF70E966E9768EF0E926E170E61
:10FA7400986EFB0E936E94688F0E956EEF0E0F01C9
:10FA84005D6F7F0E0F015C6F0F015B691200076EE3
:10FA9400000E086E000E096E000E0A6E000E0B6E4C
:10FAA4000750056E066AD89005360636D890053696
:10FAB4000636D8900536063605C00CF006C00DF0A3
:10FAC400000E0DBEFF0E0E6E0F6E01C005F0050E8A
:10FAD400066ED8900532062EFCD705500C240C6E09
:10FAE400000E0D200D6E000E0E200E6E000E0F2067
:10FAF4000F6E0CC008F00DC009F00EC00AF00FC064
:10FB04000BF008C001F009C002F00AC003F00BC0FA
:10FB140004F0120009EC7DF07080708A709E709C75
:10FB2400CB0E186EEC0E176E840EE82EFED7172E31
:10FB3400FCD7182EFAD700D0520EFAEC7CF0490EFE
:10FB4400FAEC7CF04E0EFAEC7CF0470EFAEC7CF00A
:10FB54000A0EFAEC7CF00D0EFAEC7CF0190E146E21
:10FB6400000E156EEBEC7EF00009D8B4F7D7400E0A
:10FB74001A18F4E1060E1B181C101D10D8A4EED799
:10FB84008C9C050E186E0F0E176EF10EE82EFED724
:10FB9400172EFCD7182EFAD700F0E0D7800E6F6E20
:10FBA4006E50E00B800AD8A4FBD7000E726E000ED4
:10FBB4000E01FA6F000E0E01FB6F000E0E01F86FBE
:10FBC400000E0E01F96F0E01FE690E01FF690E01B0
:10FBD400FC690E01FD69000E0E01E26F000E0E01BC
:10FBE400E36F880E0E01E06F800E0E01E16F000ED0
:10FBF4000E01E66F000E0E01E76FCC0E0E01E46FEE
:10FC0400C00E0E01E56F000E0E01EA6F000E0E012C
:10FC1400EB6F000E0E01E86F000E0E01E96F000E8F
:10FC24000E01EE6F000E0E01EF6F000E0E01EC6F71
:10FC3400000E0E01ED6F000E0E01F26F000E0E01AC
:10FC4400F36F000E0E01F06F000E0E01F16F000E47
:10FC54000E01F66F000E0E01F76F000E0E01F46F29
:10FC6400000E0E01F56F000E0E01436F980E0E018B
:10FC7400446F010E0E01456F000E6F6E6ECF01F0E2
:10FC8400E00E0116D8B41200F9D7096E000E0A6E00
:10FC9400000E0B6E000E0C6E000E0D6E000E106E3C
:10FCA400000E116E000E126E000E136E0350030B45
:10FCB4000E6E0338E842070B0F6E0250056E066A9B
:10FCC400D89005360636D89005360636D8900536CF
:10FCD400063605C010F006C011F0000E11BEFF0E6E
:10FCE400126E136E0F501024106E000E1120116E40
:10FCF400000E1220126E000E1320136E10C005F0B9
:10FD040011C006F012C007F013C008F0020ED8901C
:10FD14000536063607360836E82EF9D705C010F042
:10FD240006C011F007C012F008C013F00E501024E2
:10FD3400106E000E1120116E000E1220126E000EB5
:10FD44001320136E10C006F011C007F012C008F0A3
:10FD5400056A05C010F006C011F007C012F008C013
:10FD640013F009501024106E000E1120116E000EB5
:10FD74001220126E000E1320136E10C006F011C074
:10FD840007F012C008F0056A05C010F006C011F0B3
:10FD940007C012F008C013F001501024106E000EBA
:10FDA4001120116E000E1220126E000E1320136E1D
:10FDB40010C00AF011C00BF012C00CF013C00DF00B
:10FDC4000AC001F00BC002F00CC003F00DC004F037
:10FDD4001200000E166E60AE83D062A61ED014C050
:10FDE400D9FF15C0DAFF020EDF6E64CF01F061CFD8
:10FDF40002F062CF03F0635047EC7EF020EE01F096
:10FE04001450D9261550DA2201C0DEFF02C0DEFFED
:10FE140003C0DEFF04C0DEFF19D014C0D9FF15C033
:10FE2400DAFF010EDF6E62CF01F0615049EC7DF024
:10FE340020EE01F01450D9261550DA2201C0DEFF5D
:10FE440002C0DEFF03C0DEFF04C0DEFF20EE05F0CB
:10FE54001450D9261550DA2265CFDFFF20EE06F0C4
:10FE64001450D9261550DA2266CFDFFF20EE07F0B2
:10FE74001450D9261550DA2267CFDFFF20EE08F0A0
:10FE84001450D9261550DA2268CFDFFF20EE09F08E
:10FE94001450D9261550DA2269CFDFFF20EE0AF07C
:10FEA4001450D9261550DA226ACFDFFF20EE0BF06A
:10FEB4001450D9261550DA226BCFDFFF20EE0CF058
:10FEC4001450D9261550DA226CCFDFFF20EE0DF046
:10FED4001450D9261550DA226DCFDFFF609E89D0E9
:10FEE4000F0130AF88D00F0132A71FD014C0D9FF43
:10FEF40015C0DAFF020EDF6E34CF01F031CF02F00D
:10FF040032CF03F00F01335147EC7EF020EE01F0C5
:10FF14001450D9261550DA2201C0DEFF02C0DEFFDC
:10FF240003C0DEFF04C0DEFF1AD014C0D9FF15C021
:10FF3400DAFF010EDF6E32CF01F00F01315149ECCF
:10FF44007DF020EE01F01450D9261550DA2201C0BC
:10FF5400DEFF02C0DEFF03C0DEFF04C0DEFF20EED2
:10FF640005F01450D9261550DA2235CFDFFF20EEE4
:10FF740006F01450D9261550DA2236CFDFFF20EED2
:10FF840007F01450D9261550DA2237CFDFFF20EEC0
:10FF940008F01450D9261550DA2238CFDFFF20EEAE
:10FFA40009F01450D9261550DA2239CFDFFF20EE9C
:10FFB4000AF01450D9261550DA223ACFDFFF20EE8A
:10FFC4000BF01450D9261550DA223BCFDFFF20EE78
:10FFD4000CF01450D9261550DA223CCFDFFF20EE66
:10FFE4000DF01450D9261550DA223DCFDFFF0F0152
:0CFFF400309F010E166E7792165012001E
:020000040020DA
:08000000FFFFFFFFFFFFFFFF00
:020000040030CA
:0E00000015027F7CFF8F91FF0FC00FE00F40B5
:00000001FF
