:040000004BEF00F0D2
:100008004182FACF01F0FBCF02F0E9CF03F0EACF4B
:1000180004F0E1CF05F0E2CF06F0D9CF07F0DACF50
:1000280008F0F3CF09F0F4CF0AF0F6CF0BF0F7CFD2
:100038000CF0F8CF0DF0F5CF0EF0F2BAF2A403D021
:1000480000EC04F006D0F2BC9DA003D09EB0A9EC51
:1000580003F00EC0F5FF0DC0F8FF0CC0F7FF0BC092
:10006800F6FF0AC0F4FF09C0F3FF08C0DAFF07C0B3
:10007800D9FF06C0E2FF05C0E1FF04C0EAFF03C0E4
:10008800E9FF02C0FBFF01C0FAFF4192110093EFA4
:1000980003F0000E246E60AE83D062A61ED022C08C
:1000A800D9FF23C0DAFF020EDF6E64CF0FF061CFF5
:1000B80010F062CF11F0635062EC01F020EE01F015
:1000C8002250D9262350DA220FC0DEFF10C0DEFFEF
:1000D80011C0DEFF12C0DEFF19D022C0D9FF23C035
:1000E800DAFF010EDF6E62CF0FF06150F2EC02F022
:1000F80020EE01F02250D9262350DA220FC0DEFF6D
:1001080010C0DEFF11C0DEFF12C0DEFF20EE05F0DA
:100118002250D9262350DA2265CFDFFF20EE06F0E1
:100128002250D9262350DA2266CFDFFF20EE07F0CF
:100138002250D9262350DA2267CFDFFF20EE08F0BD
:100148002250D9262350DA2268CFDFFF20EE09F0AB
:100158002250D9262350DA2269CFDFFF20EE0AF099
:100168002250D9262350DA226ACFDFFF20EE0BF087
:100178002250D9262350DA226BCFDFFF20EE0CF075
:100188002250D9262350DA226CCFDFFF20EE0DF063
:100198002250D9262350DA226DCFDFFF609E89D006
:1001A8000F0130AF88D00F0132A71FD022C0D9FF6E
:1001B80023C0DAFF020EDF6E34CF0FF031CF10F01C
:1001C80032CF11F00F01335162EC01F020EE01F053
:1001D8002250D9262350DA220FC0DEFF10C0DEFFDE
:1001E80011C0DEFF12C0DEFF1AD022C0D9FF23C023
:1001F800DAFF010EDF6E32CF0FF00F013151F2EC52
:1002080002F020EE01F02250D9262350DA220FC046
:10021800DEFF10C0DEFF11C0DEFF12C0DEFF20EEE1
:1002280005F02250D9262350DA2235CFDFFF20EE01
:1002380006F02250D9262350DA2236CFDFFF20EEEF
:1002480007F02250D9262350DA2237CFDFFF20EEDD
:1002580008F02250D9262350DA2238CFDFFF20EECB
:1002680009F02250D9262350DA2239CFDFFF20EEB9
:100278000AF02250D9262350DA223ACFDFFF20EEA7
:100288000BF02250D9262350DA223BCFDFFF20EE95
:100298000CF02250D9262350DA223CCFDFFF20EE83
:1002A8000DF02250D9262350DA223DCFDFFF0F016F
:1002B800309F010E246E779224501200176E000EA4
:1002C800186E000E196E000E1A6E000E1B6E000ED0
:1002D8001E6E000E1F6E000E206E000E216E115055
:1002E800030B1C6E1138E842070B1D6E1050136E7D
:1002F800146AD89013361436D89013361436D8901A
:100308001336143613C01EF014C01FF0000E1FBEA3
:10031800FF0E206E216E1D501E241E6E000E1F2023
:100328001F6E000E2020206E000E2120216E1EC0A0
:1003380013F01FC014F020C015F021C016F0020EF3
:10034800D8901336143615361636E82EF9D713C05A
:100358001EF014C01FF015C020F016C021F01C506C
:100368001E241E6E000E1F201F6E000E2020206E01
:10037800000E2120216E1EC014F01FC015F020C0F1
:1003880016F0136A13C01EF014C01FF015C020F039
:1003980016C021F017501E241E6E000E1F201F6E5F
:1003A800000E2020206E000E2120216E1EC014F0A9
:1003B8001FC015F020C016F0136A13C01EF014C039
:1003C8001FF015C020F016C021F00F501E241E6E1D
:1003D800000E1F201F6E000E2020206E000E212010
:1003E800216E1EC018F01FC019F020C01AF021C0DD
:1003F8001BF018C00FF019C010F01AC011F01BC084
:1004080012F01200DDEC03F033EC04F07080708A17
:10041800709E709CC80E0E01E46F600E0E01E56FB1
:100428005A0E0F6E080E106E13EC04F0600E0F6E6D
:10043800080E106E18EC04F0F28EF28CCB0E266EBD
:10044800EC0E256E840EE82EFED7252EFCD7262E20
:10045800FAD700D08A9A80BA03D025EC04F033D0BA
:100468002A0E226E000E236E4DEC00F00009D8B45F
:1004780024D0430E2B1827E1060E2C182D102E1011
:10048800D8A421D00EEC04F0000E406E3044010BCD
:10049800D8B40FD08E940D0E266E2D0E256ED80E64
:1004A800E82EFED7252EFCD7262EFAD721EC04F00D
:1004B8000AD08E8429EC04F006D04050D8B403D07A
:1004C8008E841DEC04F02950D8B4C5D7520E08EC20
:1004D80004F0490E08EC04F04E0E08EC04F0470E48
:1004E80008EC04F00A0E08EC04F00D0E08EC04F019
:1004F800000E296EB0D7800E6F6E6E50E00B800A2A
:10050800D8A4FBD7000E726E0E01FA690E01FB69C2
:100518000E01F8690E01F9690E01FE690E01FF6905
:100528000E01FC690E01FD69000E0E01E26F000E5E
:100538000E01E36F000E0E01E06F000E0E01E16F79
:10054800000E0E01E66F000E0E01E76F000E0E01A1
:10055800E46F000E0E01E56F000E0E01EA6F000E4B
:100568000E01EB6F000E0E01E86F000E0E01E96F31
:10057800000E0E01EE6F000E0E01EF6F000E0E0161
:10058800EC6F000E0E01ED6F000E0E01F26F000E03
:100598000E01F36F000E0E01F06F000E0E01F16FE9
:1005A800000E0E01F66F000E0E01F76F000E0E0121
:1005B800F46F000E0E01F56F000E0E01436F980EDA
:1005C8000E01446F010E0E01456F000E6F6E6ECF67
:1005D8000FF0E00E0F16D8B41200F9D7156E000E02
:1005E800166E000E176E000E186E000E196E15505E
:1005F800136E146AD89013361436D89013361436FE
:10060800D8901336143613C01AF014C01BF0000E1D
:100618001BBEFF0E1C6E1D6E0FC013F0050E146E70
:10062800D8901332142EFCD713501A241A6E000EC9
:100638001B201B6E000E1C201C6E000E1D201D6E44
:100648001AC016F01BC017F01CC018F01DC019F016
:1006580016C00FF017C010F018C011F019C012F032
:100668001200000E8D6E300E8C6E000E896E040E18
:100678008E6E000E8A6E000E8F6E000E8B6EF70E59
:10068800966EFB0E976EEF0E926E170E986EDB0E3F
:10069800936E94688F0E956EEF0E0F015D6F7F0E4F
:1006A8000F015C6F0F015B691200300ECD6E000EFA
:1006B800AA6E3C0ECF6EB00ECE6ECE50CFCF11F0DC
:1006C800126A11C012F0116A11103E6E12503F6E7C
:1006D8009E909D80760E0F6E080E106E13EC04F03F
:1006E80035EC04F01200170ED56E0B0ED76EDB0E2C
:1006F800D66ED650D7CF11F0126A11C012F0116A17
:100708001110386E1250396EF294F28A780E0F6E0C
:10071800080E106E18EC04F037EC04F012007A0E94
:10072800F66E080EF76E000EF86E0900F5CF40F071
:1007380000EE27F0110EEE6AE806FDE141904192C5
:10074800000EF86E000106EF02F09E903F50CF6E4B
:100758003EC0CEFF274A282A285004E1320E275CE3
:10076800D8A01200BDEC03F0000E286E000E276E14
:1007780012003C503D10D8B4120001D812000500F8
:10078800FA6E3C50FD6E3D50FE6EF850FF6EFA500A
:1007980012003A503B10D8B4120001D812000500DC
:1007A800FA6E3A50FD6E3B50FE6EF850FF6EFA50EE
:1007B800120039EC04F035EC03F0F7EC03F059ECD7
:1007C80003F077EC03F0ECEC03F07FEC02F012009E
:1007D800080EA76E800EAB6E240EAC6E220EAF6EA6
:1007E800000E7D6E1200600ED36E000ED26E000EEB
:1007F8009B6E000E9A6E1200F2943950D76E38C074
:10080800D6FFCDEC03F012000F6E9EA8FED70FC0E6
:10081800ADFF12003F50CF6E3EC0CEFF12000FC09A
:100828003CF010C03DF012000FC03AF010C03BF091
:1008380012008C9C8C888C8A12008C9A8C8C8C88E8
:1008480012008C8C8C988C9A12008C988C8A8C8CC8
:100858001200010E406E1200010E296E1200CD909A
:100868001200CD801200D58E1200D09E1200120008
:030878001200016A
:020000040020DA
:08000000FFFFFFFFFFFFFFFF00
:020000040030CA
:0E00000015027F7CFF8F91FF0FC00FE00F40B5
:00000001FF
