:040000005BEF00F0C2
:100008004582FACF01F0FBCF02F0E9CF03F0EACF47
:1000180004F0E1CF05F0E2CF06F0D9CF07F0DACF50
:1000280008F0F3CF09F0F4CF0AF0F6CF0BF0F7CFD2
:100038000CF0F8CF0DF0F5CF0EF045C00FF046C02C
:1000480010F047C011F048C012F0F2BAF2A403D081
:10005800F8EC03F006D0F2BC9DA003D09EB0A1EC52
:1000680003F012C048F011C047F010C046F00FC0AE
:1000780045F00EC0F5FF0DC0F8FF0CC0F7FF0BC030
:10008800F6FF0AC0F4FF09C0F3FF08C0DAFF07C093
:10009800D9FF06C0E2FF05C0E1FF04C0EAFF03C0C4
:1000A800E9FF02C0FBFF01C0FAFF459211008BEF88
:1000B80003F0000E286E60AE83D062A61ED026C064
:1000C800D9FF27C0DAFF020EDF6E64CF13F061CFCD
:1000D80014F062CF15F0635070EC01F020EE01F0DF
:1000E8002650D9262750DA2213C0DEFF14C0DEFFBF
:1000F80015C0DEFF16C0DEFF19D026C0D9FF27C005
:10010800DAFF010EDF6E62CF13F06150ECEC02F003
:1001180020EE01F02650D9262750DA2213C0DEFF40
:1001280014C0DEFF15C0DEFF16C0DEFF20EE05F0AE
:100138002650D9262750DA2265CFDFFF20EE06F0B9
:100148002650D9262750DA2266CFDFFF20EE07F0A7
:100158002650D9262750DA2267CFDFFF20EE08F095
:100168002650D9262750DA2268CFDFFF20EE09F083
:100178002650D9262750DA2269CFDFFF20EE0AF071
:100188002650D9262750DA226ACFDFFF20EE0BF05F
:100198002650D9262750DA226BCFDFFF20EE0CF04D
:1001A8002650D9262750DA226CCFDFFF20EE0DF03B
:1001B8002650D9262750DA226DCFDFFF609E87D0E0
:1001C8000F0130AF86D032A71ED026C0D9FF27C076
:1001D800DAFF020EDF6E34CF13F031CF14F032CFD6
:1001E80015F0335170EC01F020EE01F02650D926BD
:1001F8002750DA2213C0DEFF14C0DEFF15C0DEFF71
:1002080016C0DEFF1AD026C0D9FF27C0DAFF010EBC
:10021800DF6E32CF13F00F013151ECEC02F020EE1B
:1002280001F02650D9262750DA2213C0DEFF14C069
:10023800DEFF15C0DEFF16C0DEFF20EE05F02650FB
:10024800D9262750DA2235CFDFFF20EE06F02650D8
:10025800D9262750DA2236CFDFFF20EE07F02650C6
:10026800D9262750DA2237CFDFFF20EE08F02650B4
:10027800D9262750DA2238CFDFFF20EE09F02650A2
:10028800D9262750DA2239CFDFFF20EE0AF0265090
:10029800D9262750DA223ACFDFFF20EE0BF026507E
:1002A800D9262750DA223BCFDFFF20EE0CF026506C
:1002B800D9262750DA223CCFDFFF20EE0DF026505A
:1002C800D9262750DA223DCFDFFF0F01309F010EDC
:1002D800286E7792285012001B6E000E1C6E000EBE
:1002E8001D6E000E1E6E000E1F6E000E226E000E9A
:1002F800236E000E246E000E256E1550030B206E23
:100308001538E842070B216E1450176E186AD890FA
:1003180017361836D89017361836D8901736183634
:1003280017C022F018C023F0000E23BEFF0E246E63
:10033800256E21502224226E000E2320236E000EEB
:100348002420246E000E2520256E22C017F023C01D
:1003580018F024C019F025C01AF0020ED8901736EC
:10036800183619361A36E82EF9D717C022F018C0F1
:1003780023F019C024F01AC025F020502224226E40
:10038800000E2320236E000E2420246E000E25204C
:10039800256E22C018F023C019F024C01AF0176A7D
:1003A80017C022F018C023F019C024F01AC025F095
:1003B8001B502224226E000E2320236E000E2420C0
:1003C800246E000E2520256E22C018F023C019F0D7
:1003D80024C01AF0176A17C022F018C023F019C0F9
:1003E80024F01AC025F013502224226E000E232078
:1003F800236E000E2420246E000E2520256E22C0B8
:100408001CF023C01DF024C01EF025C01FF01CC026
:1004180013F01DC014F01EC015F01FC016F0120016
:10042800D5EC03F02BEC04F07080708A709E709C01
:10043800C80E0E01E46F600EE56F4A0E136E080ECB
:10044800146E0BEC04F0500E136E080E146E10ECC4
:1004580004F0F28EF28CCB0E2A6EEC0E296E840E0E
:10046800E82EFED7292EFCD72A2EFAD700D08A9A52
:1004780080BA03D01DEC04F033D02E0E266E000E89
:10048800276E5DEC00F00009D8B424D0430E2F1875
:1004980027E1060E301831103210D8A421D006EC0E
:1004A80004F0000E446E3444010BD8B40FD08E947F
:1004B8000D0E2A6E2D0E296ED80EE82EFED7292E87
:1004C800FCD72A2EFAD719EC04F00AD08E8421EC36
:1004D80004F006D04450D8B403D08E8415EC04F050
:1004E8002D50D8B4C5D7530E00EC04F0430E00ECE1
:1004F80004F04F0E00EC04F0200E00EC04F04F0E58
:1005080000EC04F0500E00EC04F0450E00EC04F092
:100518004E0E00EC04F0200E00EC04F0300E00EC5F
:1005280004F00D0E00EC04F0000E2D6EA1D7800E25
:100538006F6E6E50E00B800AD8A4FBD7000E726E67
:100548000E01FA69FB69F869F969FE69FF69FC69D6
:10055800FD69000EE26F000EE36F000EE06F000E03
:10056800E16F000EE66F000EE76F000EE46F000EFD
:10057800E56F000EEA6F000EEB6F000EE86F000EDD
:10058800E96F000EEE6F000EEF6F000EEC6F000EBD
:10059800ED6F000EF26F000EF36F000EF06F000E9D
:1005A800F16F000EF66F000EF76F000EF46F000E7D
:1005B800F56F000E436F980E446F010E456F000EE5
:1005C8006F6E6ECF13F0E00E1316D8B41200F9D781
:1005D800196E000E1A6E000E1B6E000E1C6E000EB9
:1005E8001D6E1950176E186AD89017361836D8909D
:1005F80017361836D8901736183617C01EF018C098
:100608001FF0000E1FBEFF0E206E216E13C017F0E4
:10061800050E186ED8901732182EFCD717501E24C6
:100628001E6E000E1F201F6E000E2020206E000E72
:100638002120216E1EC01AF01FC01BF020C01CF024
:1006480021C01DF01AC013F01BC014F01CC015F017
:100658001DC016F01200000E8D6E300E8C6E000E4E
:10066800896E040E8E6E000E8A6E000E8F6E000E5E
:100678008B6EF70E966EFB0E976EEF0E926E170E40
:10068800986EDB0E936E94688F0E956EEF0E0F01C9
:100698005D6F7F0E5C6F5B691200300ECD6E000ED1
:1006A800AA6E3C0ECF6EB00ECE6ECE50CFCF15F0E8
:1006B800166A15C016F0156A1510426E1650436E6C
:1006C8009E909D80660E136E080E146E0BEC04F05F
:1006D8002DEC04F01200170ED56E0B0ED76EDB0E44
:1006E800D66ED650D7CF15F0166A15C016F0156A13
:1006F80015103C6E16503D6EF294F28A680E136E19
:10070800080E146E10EC04F02FEC04F012006A0EC0
:10071800F66E080EF76E000EF86E0900F5CF44F07D
:1007280000EE2BF0110EEE6AE806FDE145904592C9
:10073800000EF86E000114EF02F09E904350CF6E49
:1007480042C0CEFF2B4A2C2A2C5004E1320E2B5CDF
:10075800D8A01200B5EC03F0000E2C6E000E2B6E24
:10076800120040504110D8B4120001D81200050000
:10077800FA6E4050FD6E4150FE6EF850FF6EFA5012
:1007880012003E503F10D8B4120001D812000500E4
:10079800FA6E3E50FD6E3F50FE6EF850FF6EFA50F6
:1007A800120031EC04F02FEC03F0EFEC03F051EC05
:1007B80003F06FEC03F0E4EC03F09BEC02F01200A2
:1007C800080EA76E800EAB6E240EAC6E220EAF6EB6
:1007D800000E7D6E1200600ED36E000ED26E000EFB
:1007E8009B6E000E9A6E1200F2943D50D76E3CC07C
:1007F800D6FFC5EC03F01200136E9EA8FED713C0F7
:10080800ADFF12004350CF6E42C0CEFF120013C09E
:1008180040F014C041F0120013C03EF014C03FF085
:1008280012008C9C8C888C8A12008C9A8C8C8C88F8
:1008380012008C8C8C988C9A12008C988C8A8C8CD8
:100848001200010E446E1200010E2D6E1200CD90A2
:100858001200CD801200D58E1200D09E1200120018
:030868001200017A
:020000040020DA
:08000000FFFFFFFFFFFFFFFF00
:020000040030CA
:0E00000015027F7CFF8F91FF0FC00FE00F40B5
:00000001FF
